:020000040800F2
:1000000050680020690200087102000873020008AD
:10001000750200087702000879020008000000005D
:100020000000000000000000000000007B0200084B
:100030007D020008000000007F020008DD1C0008AF
:10004000830200088302000883020008830200087C
:10005000830200088302000883020008830200086C
:10006000830200088302000883020008830200085C
:10007000830200088302000883020008830200084C
:100080008302000883020008830200089108000828
:100090002905000883020008830200088302000883
:1000A000830200088302000883020008830200081C
:1000B000830200088302000883020008830200080C
:1000C00083020008830200088302000883020008FC
:1000D00083020008A52000088302000883020008AC
:1000E00083020008830200088302000883020008DC
:1000F00083020008830200088302000883020008CC
:1001000083020008830200088302000883020008BB
:1001100083020008830200088302000883020008AB
:10012000830200088302000883020008830200089B
:10013000830200088302000883020008690D00089A
:10014000E109000883020008830200088302000816
:10015000830200088302000883020008830200086B
:10016000830200088302000883020008830200085B
:10017000830200088302000883020008830200084B
:10018000830200088302000800F002F800F05CF827
:100190000AA090E8000C82448344AAF10107DA45E2
:1001A00001D100F051F8AFF2090EBAE80F0013F0D8
:1001B000010F18BFFB1A43F001031847CC2B0000B6
:1001C000EC2B00000A444FF0000C10F8013B13F038
:1001D000070408BF10F8014B1D1108BF10F8015BA0
:1001E000641E05D010F8016B641E01F8016BF9D193
:1001F00013F0080F1EBF10F8014BAD1C0C1B09D1EA
:100200006D1E58BF01F801CBFAD505E014F8016B5B
:1002100001F8016B6D1EF9D59142D6D370470000ED
:100220000023002400250026103A28BF78C1FBD8FF
:10023000520728BF30C148BF0B6070471FB502F09E
:100240009EFD1FBD10B510BD00F05CF81146FFF714
:10025000F5FF02F0EBFB00F07AF803B4FFF7F2FFD2
:1002600003BC00F07DF800000948804709480047BA
:10027000FEE7FEE7FEE7FEE7FEE7FEE7FEE7FEE756
:10028000FEE7FEE704480549054A064B70470000B3
:10029000191D0008890100085062002050680020E4
:1002A00050640020506400204FF0000200B5134657
:1002B00094469646203922BFA0E80C50A0E80C5086
:1002C000B1F12001BFF4F7AF090728BFA0E80C5037
:1002D00048BF0CC05DF804EB890028BF40F8042B30
:1002E00008BF704748BF20F8022B11F0804F18BF9D
:1002F00000F8012B704770477047704700487047FF
:10030000EC6100207546FFF7F9FFAE46050069462F
:10031000534620F00700854618B020B5FFF7B2FF1E
:10032000BDE820404FF000064FF000074FF00008F6
:100330004FF0000B21F00701AC46ACE8C009ACE877
:10034000C009ACE8C009ACE8C0098D46704710B5DB
:100350000446AFF300802046BDE81040FFF77DBFA4
:1003600001491820ABBEFEE726000200704790ED61
:10037000000A80ED010A00EE101AB8EEC00A80ED06
:10038000000A90ED000AD0ED010A30EE600A80ED1F
:10039000020A90ED050AB1EE400AB0EE001AC0EE76
:1003A000010A90ED020AF4EEC00AF1EE10FA08DD3F
:1003B00090ED020AD0ED050A30EE200A80ED020A27
:1003C0001DE090ED050AF0EE000A80EE201A90ED97
:1003D000020AB4EEC01AF1EE10FA08D290ED020A49
:1003E000D0ED050A30EE600A80ED020A07E090EDDC
:1003F000060AD0ED020A30EE200A80ED060A7047A8
:1004000000B58BB0002009900A90089005900690E6
:10041000079001900290039004900121082001F0C0
:10042000BFFA0121480601F0CBFA092200213C481D
:1004300001F032FA09220121394801F02DFA032096
:10044000099002208DF8280009A9354801F0DCF94F
:1004500014208DF8200000208DF8210003208DF855
:10046000220001208DF8230008A801F053FA132080
:100470008DF8200000208DF8210001208DF8220049
:100480008DF8230008A801F045FA264800F0CEFCBC
:1004900005A800F039FF00208DF81A008DF81B0028
:1004A0008DF81C008DF81D008DF81E0001208DF8C0
:1004B0001F0000208DF816008DF8170008208DF819
:1004C000180003208DF81900ADF8140005A915488F
:1004D00000F0E5FD00208DF80E008DF80F000120E2
:1004E0008DF810000020ADF80400ADF80600ADF85E
:1004F0000800ADF80A00ADF80C0001208DF81100DD
:1005000001A800F0AFFC01220221064800F0BEFD68
:1005100001221146034800F0B9FD0BB000BD0000F8
:10052000000C02400064004010B50221BD4800F0FC
:100530001DFD00287ED00221BA4800F023FCBA4AF3
:100540000021B84800F035FEB748006840F20722A5
:10055000811A90420ED008DC20286CD0A0F2052031
:10056000002869D0012868D16BE0012933D0032924
:10057000F9D104E1AC4801F0B2F904462146AB4898
:10058000FFF7F5FEA84801F0B0F900EE100AB8EE4A
:10059000C00AA648D0ED040A80EE201AA44880EDD7
:1005A000011AA24890ED060A90ED051AC0EE010A64
:1005B00090ED041A80EE810ADFED9E0A20EE200AFB
:1005C0009D4880ED010A9D48B0F86400401C9B499D
:1005D000A1F8640024E1944801F081F90446214621
:1005E0009748FFF7C4FE904801F07FF900EE100A2B
:1005F000B8EEC00A9248D0ED040A80EE201A914865
:1006000080ED011A8E48D0ED060A90ED051A80EEB5
:10061000810A90ED041AC0EE010A9FED860A20EED1
:10062000800A894880ED010A8448B0F86800401CBF
:10063000824903E0F5E0EAE059E0F0E0A1F8680063
:10064000EEE0794801F04BF9044621467F48FFF778
:100650008EFE754801F049F900EE100AB8EEC00AA6
:100660007A48D0ED040A80EE201A794880ED011A0C
:1006700078480078A0B17548D0ED060A90ED051ACB
:1006800080EE810A90ED041AC0EE010A9FED690A1E
:1006900020EE800A704880ED000A00206D49087045
:1006A0006E480078D8B16948D0ED060A90ED051A79
:1006B00080EE810AD0ED040A80EE201A9FED5D0ADB
:1006C00021EE000A664880ED010A90ED010A6248B9
:1006D000D0ED000A30EE600A614880ED010A57480B
:1006E000B0F87800401C5549A1F8780098E04E48D1
:1006F00001F0F5F8044621465A48FFF738FE4A480B
:1007000001F0F3F800EE100AB8EEC00A5548D0ED3B
:10071000040A80EE201A544880ED011A5148D0EDA9
:10072000060A90ED051A80EE810A90ED041AC0EEDB
:10073000010A9FED400A20EE800A4C4880ED010A34
:100740004B48007840B1494890ED010A494880ED96
:10075000000A002046490870444890ED010A4548C7
:10076000D0ED000A30EE600A404880ED010A3348BF
:10077000B0F88000401C3149A1F8800050E02A48C0
:1007800001F0ADF8044621463B48FFF7F0FD26484E
:1007900001F0ABF800EE100AB8EEC00A3648D0ED12
:1007A000040A80EE201A354880ED011A3248D0ED57
:1007B000060A90ED051A80EE810A90ED041AC0EE4B
:1007C000010A9FED1C0A20EE800A2D4880ED010AE7
:1007D0002C48007840B12A4890ED010A2A4880ED63
:1007E000000A002027490870254890ED010A264894
:1007F000D0ED000A30EE600A214880ED010A0F4872
:10080000B0F88800401C0D49A1F8880008E00648AF
:10081000C17A007B41EA00201C49088000E000BF4B
:1008200000BF10BD00640040DC0F0020680B0020FA
:10083000A80A00200000B44398090020980E002068
:10084000840B0020EC0A0020DC0900205800002066
:1008500040010020D5010020D0010020FC01002033
:10086000FC0000202402002024040020E0030020DB
:10087000E1080020BC0800205C02002034050020B4
:10088000F0040020E3080020C40800200C0E002023
:1008900010B50121044800F069FB18B1012102489C
:1008A00000F070FA10BD00000064004000B58BB08D
:1008B000002009900A9008900590069007900190FA
:1008C0000290039004900121022001F069F80121B7
:1008D000480601F075F80121880601F071F8092237
:1008E0000C213D4800F0D8FF09220D213A4800F0C4
:1008F000D3FF4FF44050099002208DF8280009A939
:10090000354800F081FF40208DF8200000208DF850
:10091000210003208DF8220001208DF8230008A873
:1009200000F0F8FF3F208DF8200000208DF8210016
:1009300001208DF822008DF8230008A800F0EAFFBE
:10094000264800F073FA05A800F0DEFC00208DF8C0
:100950001A008DF81B008DF81C008DF81D008DF815
:100960001E0001208DF81F0000208DF816008DF864
:10097000170008208DF8180003208DF81900ADF835
:10098000140005A9154800F08AFB0E208DF80E0012
:1009900000208DF80F0001208DF810000020ADF828
:1009A0000400ADF80600ADF80800ADF80A00ADF897
:1009B0000C0001208DF8110001A800F053FA01226B
:1009C0000221064800F062FB01221146034800F0B4
:1009D0005DFB0BB000BD0000000402400068004059
:1009E00010B50221C34800F0C1FA00287ED00221D0
:1009F000C04800F0C7F9C04A0021BE4800F0D9FB4A
:100A0000BD480068B0F5017F71D005DCA0F201207F
:100A100048B102286CD137E0A0F20920002868D044
:100A20000228F7D11BE1B44800F059FF04462146E3
:100A3000B248FFF79CFCB04800F057FF00EE100AE8
:100A4000B8EEC00AAE48D0ED040A80EE201AAD48D8
:100A500080ED011AA948D0ED060A90ED051A80EE46
:100A6000810A90ED041AC0EE010A9FEDA70A20EE5C
:100A7000800AA64880ED010AA548B0F85C00401C39
:100A8000A349A1F85C0033E19B4800F028FF04462D
:100A90002146A048FFF76BFC974800F026FF00EEC8
:100AA000100AB8EEC00A9B48D0ED040A80EE201A66
:100AB000994880ED011A99480078A0B19548D0ED89
:100AC000060A90ED051A80EE810AD0ED040A80EE48
:100AD000201A9FED8D0A21EE000A914880ED000A50
:100AE00000208E4908708F48007803E001E126E07D
:100AF000FDE06CE0D8B18748D0ED060A90ED051A0C
:100B000080EE810A90ED041AC0EE010A9FED7E0A84
:100B100020EE800A844880ED010A90ED010A8048A9
:100B2000D0ED000A30EE600A7F4880ED010A784877
:100B3000B0F87400401C7649A1F87400D8E06E4803
:100B400000F0CDFE044621467848FFF710FC6A48C5
:100B500000F0CBFE00EE100AB8EEC00A7348D0EDEC
:100B6000040A80EE201A724880ED011A6F48D0ED19
:100B7000060A90ED051A80EE810A90ED041AC0EE87
:100B8000010A9FED610A20EE800A6A4880ED010AA1
:100B90006948007840B1674890ED010A674880EDE8
:100BA000000A002064490870624890ED010A634819
:100BB000D0ED000A30EE600A5E4880ED010A54482C
:100BC000B0F89400401C5249A1F8940090E04A48C3
:100BD00000F085FE044621465948FFF7C8FB464809
:100BE00000F083FE00EE100AB8EEC00A5448D0EDC3
:100BF000040A80EE201A534880ED011A5048D0EDC7
:100C0000060A90ED051A80EE810A90ED041AC0EEF6
:100C1000010A9FED3D0A20EE800A4B4880ED010A53
:100C20004A48007840B1484890ED010A484880EDB4
:100C3000000A002045490870434890ED010A4448E5
:100C4000D0ED000A30EE600A3F4880ED010A3048DE
:100C5000B0F87C00401C2E49A1F87C0048E02648F2
:100C600000F03DFE044621463A48FFF780FB22484B
:100C700000F03BFE00EE100AB8EEC00A3548D0ED99
:100C8000040A80EE201A344880ED011A3148D0ED74
:100C9000060A90ED051A80EE810A90ED041AC0EE66
:100CA000010A9FED190A20EE800A2C4880ED010A06
:100CB0002B48007840B1294890ED010A294880ED81
:100CC000000A002026490870244890ED010A2548B2
:100CD000D0ED000A30EE600A204880ED010A0C4891
:100CE000B0F88400401C0A49A1F8840000E000BF6D
:100CF00000BF10BD00680040F00F00203C03002042
:100D0000300B0020640800200000B44320080020BD
:100D1000980E00203C000020B8000020D4010020E4
:100D2000CC010020FC0100207400002004030020FE
:100D30005407002010070020E7080020D4080020F6
:100D4000080200209C03002058030020E008002037
:100D5000B808002040020020AC04002068040020F5
:100D6000E2080020C008002010B50121044800F06E
:100D7000FDF818B10121024800F004F810BD000090
:100D800000680040B1F5007F3AD00FDC202928D060
:100D900006DC01291CD004291DD0082940D11DE002
:100DA000402921D0B1F5807F3AD126E0B1F5004F3E
:100DB00031D006DCB1F5806F25D0B1F5006F2FD1B1
:100DC00024E0B1F5803F12D0B1F5003F28D111E009
:100DD000154A826025E00822C26022E01022C2602B
:100DE0001FE0082202611CE01022026119E00822C3
:100DF000426016E01022426013E00422426010E0DC
:100E0000042242600DE0042242600AE00022826176
:100E10000422426005E0002282610422426000E078
:100E200000BF00BF704700000101010010B504467B
:100E30000B48844209D10121480600F0D1FD002170
:100E40004FF0007000F0CCFD08E00121880600F0B2
:100E5000C7FD00214FF0806000F0C2FD10BD000012
:100E60000064004010B50021837A012202FA03F1E8
:100E70003D4A126842F001023B4B1A603A4A1C326A
:100E800012688A43384B1C331A60027BCAB9364A4F
:100E90000C3212688A43344B0C331A604288C38880
:100EA00042EA0343304A4032847A42F834300288BE
:100EB000838842EA03432C4A4032847A02EBC4021C
:100EC0005360027B012A19D1274A0C3212680A4367
:100ED000254B0C331A604288038842EA0343224AB6
:100EE0004032847A42F83430C288838842EA03432D
:100EF0001D4A4032847A02EBC4025360C27A3AB986
:100F0000194A121D12688A43174B1B1D1A6006E00E
:100F1000154A121D12680A43134B1B1D1A600289E1
:100F200032B9114A143212688A430F4B14331A60D3
:100F30000289012A06D10C4A143212680A430A4B6C
:100F400014331A60427B012A06D1074A1C32126808
:100F50000A43054B1C331A60034A126822F001024F
:100F6000014B1A6010BD00000066004070B50446D9
:100F70000D46002660692840002871D0B5F5807FB5
:100F80005CD010DC082D35D006DC012D20D0022DE0
:100F900024D0042D72D127E0102D31D0202D35D052
:100FA000402D6BD138E0B5F5004F60D009DCB5F5C8
:100FB000007F49D0B5F5806F4CD0B5F5006F5DD19D
:100FC0004FE0B5F5803F2DD0B5F5003F56D12FE06D
:100FD000A0682D4900F0E1FA064651E0E0680321DF
:100FE00000F0DBFA06464BE0E068082100F0D5FA95
:100FF000064645E0E068102100F0CFFA06463FE0E3
:101000002069032100F0C9FA064639E02069082169
:1010100000F0C3FA064633E02069102100F0BDFA63
:1010200006462DE06068082100F0B7FA064627E082
:101030006068102100F0B1FA064621E0A0690121A4
:1010400000F0ABFA06461BE0A069022100F0A5FA09
:10105000064615E0A069042100F09FFA06460FE05D
:101060000FE0A069702100F098FA064608E0606879
:10107000042100F092FA064602E0FFE7002600BFD6
:1010800000E00026304670BD010101001AB143693D
:101090000B43436102E043698B434361704730B5C2
:1010A000024600200023146824F00204146014682F
:1010B00044F00104146000E05B1C546804F0010477
:1010C0001CB94FF6FF74A342F6D1546804F0010432
:1010D0000CB900206CE08C79012C04D1146844F028
:1010E0008004146003E0146824F080041460CC7958
:1010F000012C04D1146844F04004146003E0146827
:1011000024F0400414600C7A012C04D1146844F0DB
:101110002004146003E0146824F0200414604C7A66
:10112000012C04D1146844F01004146003E0146826
:1011300024F0100414608C7A012C04D1146844F05B
:101140000804146003E0146824F008041460CC7AE6
:10115000012C04D1146844F00404146003E0146802
:1011600024F0040414608C78A407CD7844EA056464
:101170000D7944EA05444D7944EA05540D886D1E05
:101180002C43D461146824F001041460002300E0AF
:101190005B1C546804F001041CB14FF6FF74A342B9
:1011A000F6D1546804F001040CB1002000E00120E5
:1011B00030BD10B500F5D87303EB01131B6803F0C5
:1011C00004031372137A53B900F5D87303EB0113B8
:1011D0001B6840F2FF7404EA5353136009E000F502
:1011E000D87303EB01131B686FF0604404EAD30368
:1011F000536000F5D87303EB01131B6803F002037F
:10120000537200F5D87303EB01135B6803F00F030F
:10121000937200F5D87303EB01135B681B0AD37458
:1012200000F5D87303EB01139B68D37200F5D873F4
:1012300003EB01139B681C0A147300F5D87303EBCE
:1012400001139B681C0C547300F5D87303EB011356
:101250009B681B0E937300F5D87303EB0113DB68D7
:10126000D37300F5D87303EB0113DB681C0A147405
:1012700000F5D87303EB0113DB681C0C547400F504
:10128000D87303EB0113DB681B0E937421B9C36899
:1012900043F02003C36003E0036943F020030361CC
:1012A00010BD2DE9F04385B081460E4614461D461B
:1012B000DDE90C78009600208DF808008DF8090013
:1012C00008208DF80A00200A8DF80B00E1B28DF895
:1012D0000C10290A8DF80D10E9B28DF80E10390A9C
:1012E0008DF80F10F9B28DF810104FEA18218DF813
:1012F000111008F0FF018DF812106946484600F001
:1013000013F805B0BDE8F08300218171C17101724D
:1013100041728172C1728170C17003210171022119
:10132000417101210180704710B502460020936889
:1013300003F08063B3F1806F00D110E0936803F095
:101340000063B3F1006F01D1012008E0936803F05E
:101350008053B3F1805F01D1022000E00420042813
:1013600074D002F5C07303EB00131B6803F0010493
:1013700002F5C07303EB00131C600B7A7BB94B7A48
:101380000C8843EA445302F5C07404EB001424684B
:10139000234302F5C07404EB0014236010E00B7AC1
:1013A0004C6843EAC4034C7A234302F5C07404EB4F
:1013B00000142468234302F5C07404EB0014236076
:1013C0008B7A03F00F038B7202F5C07303EB0013EB
:1013D0005B6823F00F0402F5C07303EB00135C603D
:1013E00002F5C07303EB00135B688C7A234302F5AC
:1013F000C07404EB001463608B7B1C064B7B44EAD7
:1014000003440B7B44EA0323CC7A234302F5C074E4
:1014100004EB0014A3608B7C1C064B7C44EA034461
:101420000B7C44EA0323CC7B234302F5C07404EB1A
:101430000014E36002F5C07303EB00131B6843F074
:10144000010402F5C07303EB00131C6010BD10B55E
:101450002DED068B044694ED000AD4ED010A30EE22
:10146000600A84ED080A94ED100A10EE101A08467E
:1014700001F014FC41EC180B94ED080A10EE101A60
:10148000084601F00BFC41EC1A0BB0EE4A0AF0EEF4
:101490006A0A01F0C1FAB0EE409AF0EE609A53EC9D
:1014A000182B51EC190B01F069FB07D294ED0A0AD5
:1014B000D4ED080A30EE200A84ED0A0AD4ED0E1AA3
:1014C000B0EE611AD4ED0E1AF1EE611AF0EE610A77
:1014D000D4ED0A1AB0EE610A00F068F884ED0A0A49
:1014E000D4ED021A94ED082A61EE821AB0EE610A78
:1014F000D4ED0D1AB0EE611AD4ED0D1AF1EE611AA9
:10150000F0EE610A00F052F884ED050A94ED030A4A
:10151000D4ED0A0A20EE200A84ED060AD4ED081A5A
:1015200094ED092A71EEC21A94ED042A61EE821A32
:10153000B0EE610AD4ED0F1AB0EE611AD4ED0F1AB5
:10154000F1EE611AF0EE610A00F030F884ED070A5E
:1015500094ED050AD4ED060A30EE200AD4ED070A10
:1015600030EE200A84ED0B0A94ED080A84ED090A96
:10157000D4ED0C1AB0EE611AD4ED0C1AF1EE611A2A
:10158000F0EE610AD4ED0B1AB0EE610A00F00EF82D
:1015900084ED0B0ABDEC068B10BD0246002002EA6A
:1015A00001030BB1012000E000207047F0EE401A6B
:1015B000F4EEE01AF1EE10FA02D2B0EE600A09E0A1
:1015C000F4EEC11AF1EE10FA02DDB0EE410A01E0CC
:1015D000B0EE610A704721B1026842F00102026078
:1015E00003E0026822F0010202607047016821F006
:1015F000010101600021016041608160C160016101
:10160000212141614A49884204D13D21484A103A8A
:1016100091608CE046491831884205D14FF47461DD
:10162000434A103A916082E041493031884205D105
:101630004FF474113E4A103A916078E03C494831C9
:10164000884205D14FF07461394A103A91606EE0DA
:1016500037496031884204D13649354A103AD16061
:1016600065E033497831884204D13349304A103A31
:10167000D1605CE02E499031884204D12F492C4A38
:10168000103AD16053E02A49A831884205D14FF081
:101690003D51274A103AD16049E02949884204D196
:1016A0003D21274A083A116041E025491831884216
:1016B00005D14FF47461224A083A116037E020499D
:1016C0003031884205D14FF474111D4A083A116037
:1016D0002DE01B494831884205D14FF07461184A0A
:1016E000083A116023E016496031884204D111495B
:1016F000134A121F11601AE011497831884204D14F
:101700000D490F4A121F116011E00D4990318842B6
:1017100004D10A490A4A121F116008E00849A83199
:10172000884204D14FF03D51054A121F11607047A5
:10173000106002403D000020400F002000003D20CE
:1017400010640240014600200A6802F001020AB15A
:10175000012000E0002070470146486880B27047D1
:10176000014600200A6802F400220AB1012000E0CC
:101770000020704710B501F080034BB122B14369DE
:1017800043F08003436103E0436923F08003436136
:1017900080290BD02AB1036801F01E0423430360A3
:1017A00004E0036801F01E04A343036010BD0000C1
:1017B00010B500220268134B1A40CC680B68234313
:1017C0004C6923438C692343CC6923430C6A23432C
:1017D0004C6A23438C6A23434C6B23438C6B234317
:1017E0001A430260426922F00702D1E90B34234315
:1017F0001A4342610B6943604B6883608B68C36026
:1018000010BD00003F801CF0F0B50A460021002307
:10181000002400BF3DE0012505FA01F3156805EA43
:1018200003049C4234D105684F000326BE40B543F3
:10183000056015794E00B540066835430560157999
:10184000012D02D01579022D16D185684F0003268F
:10185000BE40B543856055794E00B5408668354336
:101860008560456801268E40B54345604568967998
:101870008E40B6B235434560C5684F000326BE4072
:10188000B543C560D5794E00B540C6683543C560DF
:10189000491C1029BFD3F0BDF0B5002300244D072B
:1018A000ED0E02FA05F3CE1000F1200555F8265092
:1018B0004E07F70E0F26BE40B543CF1000F12006AD
:1018C00046F82750CE1000F1200555F8265045EA7D
:1018D0000304CE1000F1200545F82640F0BD014676
:1018E0000A7BCB7A42EA0320704710B501464FF6D7
:1018F000FF724B7B03F080033BB114044B7B44EA43
:1019000003238C7B43EA040003E08C7B4B7B44EA9B
:10191000032010BD70B5002100230F22C4781CB332
:10192000174C246804F4E064C4F5E064C4F30721B0
:10193000C1F10404E3B20A4144789C40E1B28478E6
:10194000144021430C07210E0E4C05786155047894
:1019500004F01F050124AC4005786D11AD0005F1C0
:10196000E025C5F8004109E0047804F01F050124D2
:10197000AC40054D0678761145F8264070BD000054
:101980000CED00E000E400E080E100E002490143EA
:10199000024A1160704700000000FA050CED00E0FB
:1019A00029B1064A12680243044B1A6004E0034A54
:1019B00012688243014B1A607047000030380240C1
:1019C00029B1064A12680243044B1A6004E0034A34
:1019D00012688243014B1A60704700004038024091
:1019E00029B1064A12680243044B1A6004E0034A14
:1019F00012688243014B1A60704700002038024091
:101A000029B1064A12680243044B1A6004E0034AF3
:101A100012688243014B1A6070470000443802404C
:101A200029B1064A12680243044B1A6004E0034AD3
:101A300012688243014B1A6070470000243802404C
:101A4000F0B5002100220024022500260223324F97
:101A50003F6807F00C0121B1042905D0082937D1CE
:101A600005E02E4F076036E02D4F076033E02A4F28
:101A70003F1F3F68C7F38056274F3F1F3F6807F05F
:101A80003F036EB1264FB7FBF3F7DFF88CC0ACF124
:101A9000040CDCF800C0CCF3881C07FB0CF40CE051
:101AA0001E4FB7FBF3F7DFF870C0ACF1040CDCF8A5
:101AB00000C0CCF3881C07FB0CF4174F3F1F3F6896
:101AC000C7F301477F1C7D00B4FBF5F7076002E018
:101AD000124F076000BF00BF0F4F3F6807F0F001D3
:101AE0000909104F7A5C0768D74047600A4F3F6882
:101AF00007F4E051890A0B4F7A5C4768D74087604A
:101B0000054F3F6807F46041490B064F7A5C476810
:101B1000D740C760F0BD0000083802400024F40040
:101B200000127A00860E002000B9704701784278D2
:101B300041EA0221C1F30A01224A11804178C91009
:101B4000827841EA4211C1F30A011E4A518081782C
:101B50008911C27841EA8201027941EA8221C1F306
:101B60000A01184A918001794910427941EAC2116B
:101B7000C1F30A01134AD180417909118908117210
:101B80004179C1F3011151728179C27941EA02218F
:101B900009B20C4A5181017A427A41EA02210AB221
:101BA00008498A81817AC27A41EA02210AB205494A
:101BB000CA81027B0A74427B4A74817B014A51824A
:101BC00000BFB2E7281000200CB500200190009063
:101BD0003448006840F480303249086000BF314822
:101BE000006800F4003000900198401C01900098BB
:101BF00018B90198B0F5A04FF1D12A48006800F457
:101C0000003010B10120009001E000200090009809
:101C1000012846D123484030006840F080502149D7
:101C2000403108602048006840F440401E49086088
:101C30001C48083000681B490831086008460068E5
:101C400040F4004008600846006840F4A050086076
:101C50001648091F0860081F006840F08070091FBF
:101C6000086000BF0F48006800F000700028F9D03D
:101C700040F205700E4908600A480830006820F0FC
:101C800003000849083108600846006840F0020077
:101C9000086000BF03480830006800F00C00082806
:101CA000F8D10CBD003802400070004008544007D5
:101CB000003C0240042808D14FF0E021096941F0BE
:101CC00004014FF0E022116107E04FF0E0210969C3
:101CD00021F004014FF0E022116170471CB50A4861
:101CE000B0F900000949B1F90010CDE90010084829
:101CF000B0F9000043420648B0F900204FF40071EB
:101D00000448FFF7CEFA1CBDB0080020C80100202F
:101D1000B40800200068004010B51548006840F481
:101D20007000134908601348006840F00100114931
:101D3000086000200F49083108600E4800680E490D
:101D400008400C4908600D48091D0860081F00681C
:101D500020F48020091F0860002006490C3108602B
:101D6000FFF732FF4FF0006001498039086010BD75
:101D700088ED00E000380240FFFFF6FE103000243E
:101D800010B596B004460020149015901090119054
:101D9000129013900F903C216846FEF785FA0121BE
:101DA000C804FFF70DFE01215448FFF7F9FD082292
:101DB0000A215348FFF770FD08220B215048FFF716
:101DC0006BFD01208DF856008DF8570002208DF82C
:101DD000540000208DF855004FF44060149014A971
:101DE0004748FFF711FD34208DF83C0000208DF8A6
:101DF0003D0006208DF83E0001208DF83F000FA821
:101E0000FFF788FD10940020ADF84400ADF84600BF
:101E1000ADF84800ADF84C000C20ADF84A0010A910
:101E2000384800F08FFD012240F22441354800F08F
:101E300063FD0121334800F0A7FC01224021314815
:101E400000F0AEFC012280212E4800F0A9FC2E48B3
:101E5000FFF7CCFB00BF2C48FFF774FC0128FAD039
:101E60004FF0006000902748001D01902748029025
:101E70004020039024200490002005904FF48060BF
:101E8000069000200790089009904FF400300A90C7
:101E900000200B900C900D900E9069461A48FFF7A9
:101EA00087FC00211848FFF796FB17483038FFF7EA
:101EB0009DFB00BF14483038FFF744FC0128F9D0DF
:101EC0004FF0006000900F48001D019010480290F4
:101ED0000020039008200490400109904FF4403006
:101EE0000A90694608483038FFF762FC012106482D
:101EF0003038FFF770FB16B010BD00000400200062
:101F000000080240004C00407060024098600020D1
:101F1000300E002010B596B0044601210805FFF7E9
:101F20004FFD01210C20FFF73BFD01214805FFF784
:101F300037FD08220C215648FFF7AEFC082202218B
:101F40005448FFF7A9FC01208DF856008DF8570082
:101F500002208DF854008DF85500C002149014A989
:101F60004B48FFF751FC0420149014A94948FFF78F
:101F70004BFC494800F01EFC10940020ADF84400D2
:101F8000ADF84600ADF84800ADF84C000C20ADF8B7
:101F90004A0010A9404800F0D5FC012240F224413B
:101FA0003D4800F0A9FC01213B4800F0EDFB012277
:101FB0008021394800F0F4FB01224021364800F02E
:101FC000EFFB35208DF83C0001208DF83D0003200B
:101FD0008DF83E0001208DF83F000FA8FFF79AFC16
:101FE0002E48FFF703FB4FF0006000902A48001DC9
:101FF00001902B48029000200390082004900020BC
:1020000005904FF4806006900020079008904FF4F0
:10201000807009904FF440300A9000200B9003200C
:102020000C9000200D900E9069461C48FFF7C0FBF5
:1020300001211A48FFF7CFFA1848A830FFF7D6FA5F
:102040004FF0006000901448001D019000200290A5
:10205000402003900020049005904FF4806006908B
:1020600000200790089009904FF440300A9000201B
:102070000B900C900D900E9069460848A830FFF721
:1020800097FB00210548A830FFF7A5FA16B010BD50
:1020900000080240000C0240005000401060024066
:1020A000380E002010B540F22441214800F0FAFB20
:1020B00000283BD01E4800881D4880881D48FFF737
:1020C0004FFBC8B900211B48FFF785FA12201949B8
:1020D000091D0860081F006840F40020091F0860FF
:1020E00001211448FFF777FA1248FFF735FBE8B9EA
:1020F0001148FFF719FD19E000210E48FFF76BFAB0
:1021000012200C49091D0860081F006820F40020F7
:10211000091F086001210748FFF75DFA0548FFF72E
:102120001BFB18B904481230FFF7FEFC10BD00007D
:1021300000100140886402400410002010B596B0E1
:102140000446002014901590109011901290139056
:102150000F903C216846FEF7A7F801215C48FFF785
:102160001FFC01211020FFF74BFC072209215948D1
:10217000FFF792FB07220A215648FFF78DFB4FF429
:10218000C060149002208DF854008DF85500002096
:102190008DF8560001208DF8570014A94D48FFF71F
:1021A00033FB10940020ADF84400ADF846004FF426
:1021B0008060ADF848000020ADF84C000C20ADF870
:1021C0004A0010A9444800F0BDFB0121424800F03C
:1021D000DBFA01224021404800F0E2FA012280218E
:1021E0003D4800F0DDFA3D48FFF700FA4FF000608F
:1021F00000903948001D019039480290002003905A
:1022000012200490002005904FF48060069000207A
:10221000079008904FF4807009904FF440300A9076
:1022200000200B900C900D900E9069462B48FFF704
:10223000BFFA01212948FFF7CEF928487830FFF787
:10224000D5F94FF0006000902348001D0190002058
:102250000290402003900020049005904FF480608D
:10226000069000200790089009904FF440300A90A3
:1022700000200B900C900D900E9069461748783016
:10228000FFF796FA002115487830FFF7A4F90122EC
:1022900040F22441104800F02FFB25208DF83C002F
:1022A00000208DF83D008DF83E0001208DF83F00A4
:1022B0000FA8FFF72FFB01224021074800F070FA1A
:1022C00001228021044800F06BFA16B010BD000016
:1022D0000100400000000240001001404064024044
:1022E0003C10002010B596B0044601215D48FFF770
:1022F00057FB01214804FFF763FB072205215A48D9
:10230000FFF7CAFA072206215748FFF7C5FA6020EF
:10231000149002208DF8540001208DF85600002002
:102320008DF855008DF8570014A94F48FFF76CFA47
:1023300026208DF83C0001208DF83D0000208DF80E
:102340003E0001208DF83F000FA8FFF7E3FA10943C
:102350000020ADF84400ADF84600ADF848000C2070
:10236000ADF84A000020ADF84C0010A93F4800F03D
:10237000E9FA012240F224413C4800F0BDFA012272
:1023800040213A4800F00CFA01228021374800F041
:1023900007FA0121354800F0F7F93548FFF726F92B
:1023A0004FF0006000903148001D019031480290CC
:1023B0000020039042F210700490002005904FF42A
:1023C000806006900020079008904FF4807009907C
:1023D0004FF440300A9000200B900C900D900E901E
:1023E00069462348FFF7E4F901212148FFF7F3F894
:1023F0001F481830FFF7FAF800BF1D481830FFF7E4
:10240000A1F90128F9D04FF0006000901748001D95
:10241000019000200290402003900020049005903D
:102420004FF48060069000200790089009904FF4C8
:1024300040300A9000200B900C900D900E90694651
:102440000B481830FFF7B4F9012210210848183062
:10245000FFF790F9002106481830FFF7BCF816B0D6
:1024600010BD000008002000000C024000440040A5
:10247000886002403012002010B596B00446012159
:102480000820FFF78DFA01218804FFF799FA01214E
:102490004805FFF785FA072208215348FFF7FCF9A2
:1024A000072209215048FFF7F7F94FF440701490C4
:1024B00002208DF854008DF8550000208DF856004C
:1024C00001208DF8570014A94748FFF79DF94748A8
:1024D00000F070F910940020ADF84400ADF846000B
:1024E000ADF84800ADF84C000C20ADF84A0010A93A
:1024F0003E4800F027FA01213C4800F045F901224E
:1025000040F22441394800F0F7F901228021374890
:1025100000F046F901224021344800F041F927201B
:102520008DF83C0000208DF83D008DF83E00012024
:102530008DF83F000FA8FFF7EDF92D48FFF756F88B
:102540004FF0006000902948001D0190294802903A
:102550000020039034200490002005904FF4806008
:1025600006900020079008904FF4807009904FF477
:1025700040300A9000200B900C900D900E90694610
:102580001B48FFF715F901211948FFF724F81848EF
:102590003030FFF72BF84FF0006000901348001D1B
:1025A00001900020029040200390002004900590AC
:1025B0004FF48060069000200790089009904FF437
:1025C00040300A9000200B900C900D900E906946C0
:1025D00007483030FFF7ECF8002105483030FEF7AF
:1025E000FAFF16B010BD0000000C02400048004089
:1025F000286002405060002010B596B004460121CA
:102600000420FFF7CDF901212020FFF7F9F901217E
:102610008805FFF7C5F9082206215748FFF73CF95E
:10262000082207215448FFF737F901208DF856009A
:102630008DF8570002208DF85400C020149002201D
:102640008DF8550014A94C48FFF7DEF847208DF8A7
:102650003C0001208DF83D0003208DF83E00012054
:102660008DF83F000FA8FFF755F9444800F0A2F895
:1026700010940020ADF84400ADF84600ADF84800D5
:10268000ADF84C000C20ADF84A0010A93B4800F012
:1026900059F9012240F22441384800F02DF9012275
:1026A0008021364800F07CF801224021334800F0B8
:1026B00077F80121314800F067F83148FEF796FFBE
:1026C0004FF0206000902D48001D01902D48029091
:1026D0000020039012200490002005904FF48060A9
:1026E00006900020079008904FF4807009904FF4F6
:1026F00040300A9000200B9003200C9000200D9099
:102700000E9069461E48FFF753F801211C48FEF75A
:1027100062FF1B487830FEF769FF00BF1848783029
:10272000FFF710F80128F9D04FF02060009013480F
:10273000001D019000200290402003900020049092
:1027400005904FF480600690002007900890099053
:102750004FF440300A9000200B900C900D900E909A
:10276000694607487830FFF723F80021044878309D
:10277000FEF731FF16B010BD000802400014014002
:1027800028640240E060002021B1828942F40052B6
:10279000828104E082894DF6FF731A40828170477E
:1027A0001AB1838A0B43838202E0838A8B4383823C
:1027B0007047000010B504463248844208D1012118
:1027C0001020FFF72DF900211020FFF729F957E01D
:1027D0002D48844209D101214804FFF701F9002165
:1027E0004FF40030FFF7FCF84AE02848844209D152
:1027F00001218804FFF7F4F800214FF48020FFF74F
:10280000EFF83DE02248844209D10121C804FFF7D6
:10281000E7F800214FF40020FFF7E2F830E01D4810
:10282000844209D101210805FFF7DAF800214FF4AD
:102830008010FFF7D5F823E01748844208D1012122
:102840002020FFF7EDF800212020FFF7E9F817E03E
:102850001248844209D101218807FFF7C1F80021FD
:102860004FF08040FFF7BCF80AE00D48844207D1E2
:1028700001214005FFF7B4F800216005FFF7B0F82B
:1028800010BD00000010014000440040004800401E
:10289000004C00400050004000140140007800400F
:1028A000007C004070B50246002400230025002073
:1028B00040F66A16B14200D100BFC1F3421501F0E3
:1028C0001F03012606FA03F3012D02D19689334036
:1028D00006E0022D02D1168A334001E0968A334089
:1028E0000C12012606FA04F41688344013B10CB118
:1028F000012000E0002070BDF0B503460024002652
:102900000025002040F66A17B94200D100BF1846E2
:10291000C1F3421401F01F06012707FA06F5012C46
:1029200001D10C3004E0022C01D1103000E0143051
:102930001AB107682F43076002E00768AF430760DA
:10294000F0BD00002DE9FF4705460E460024A146D4
:1029500000BFA046B08900B100BF2C8A24F44054C7
:10296000F08804432C82AC8941F20C608443B08827
:1029700031890843718908430443AC81AC8A24F44B
:102980004074B0890443AC826846FFF759F8204888
:10299000854202D01F48854202D1DDF80C9001E04B
:1029A000DDF80890A88900F4004040B109EBC900A7
:1029B00000EB091031684900B0FBF1F707E009EBC3
:1029C000C90000EB091031688900B0FBF1F7642001
:1029D000B7FBF0F004012009642101FB1078A889FD
:1029E00000F4004040B1322000EBC800B0FBF1F031
:1029F00000F00700044308E0322000EB08106421D7
:102A0000B0FBF1F000F00F0004432C81BDE8FF871C
:102A100000100140001401402DED020B019820F040
:102A2000004001909DED000B02B070474FF44070E4
:102A3000FEF7ACFF3C48FFF781FB4FF4E130FFF7B6
:102A400051FC3A48FFF718FD4FF4E120FFF7D4FDA1
:102A50004FF4E130FFF75EFA4FF4E130FFF790F901
:102A6000FDF7CEFCFDF722FF3149481EB0F1807F13
:102A700000D31BE0481E4FF0E022506150170F2298
:102A8000002807DA13071D0E2A4B00F00F04241F3D
:102A90001D5503E013071C0E274B1C5400BF0020DC
:102AA0004FF0E02290610720106100BF0420FFF783
:102AB00001F92248006820F4805020490860084647
:102AC000006840F40050086000201D4908702AE0AA
:102AD0001C480068401C1B4908609FED1B0A1B48EE
:102AE00080ED000A90ED000A194880ED000AFEF71B
:102AF000AEFC174890ED0B0A164880ED000AFEF771
:102B0000A6FC1448D0ED0B0AB0EE600A9FED121A35
:102B1000DFED120AFEF74AFDBDEEC00A10EE100A04
:102B200000B20F490880D3E7A0860100008C0A009C
:102B30004090020018ED00E000E400E0000E0020EC
:102B4000080900203400002000005C421C00002026
:102B500020080020640800200060EA460060EAC601
:102B6000B4080020491058BFC1F140415B1058BF64
:102B7000C3F140438B42EFF30080704751EA030CEE
:102B800017D41CF5801F58BFBCF5801F00F10680CC
:102B9000994218BF704708BF9042704707D711F598
:102BA000801F58BF13F5801F19D49942704789427E
:102BB00070471CF5801F08D5BCF5801FF7D58B42E8
:102BC00018BF704708BF824270474FF4001C1CEBCF
:102BD000410F38BF1CEB430F01D28B42704770B5D9
:102BE00000F008F8922449004FF000514FF0805354
:102BF000FFF7B8BF0EF1020E2EF0030E5EF8046B65
:102C0000364205D4012A43EB030515F5001F12D8FF
:102C1000012841EB010C1CF5001F0CD80ED14FEA26
:102C2000D17C15F5001F0CEB4C0C0CF1020C08BF0D
:102C30004CEBD37C04E04FF0080C01E04FEAD37C6E
:102C40000CEB4C0526FA05F606F00706B6F1040C67
:102C500006D20EEB860CBDE870404CF0010C6047CC
:102C6000DFE80CF0090B02024FF000414FF00000CA
:102C7000A1F5002170BD19461046012851EB010451
:102C800018BFD4F5001484BF002001F0004170BDCE
:102C90000808A0F500114FEA3101704743004FEAE0
:102CA000D30C4FEA3C0C43401FBF40070CF160516E
:102CB00013F0FE4F70471CF0006F03D100200CF0A2
:102CC000004170470CF0004343EA507010B540EAF1
:102CD000CC0000F00EF800BF000000924FEA0001A7
:102CE000FFF7D6BF4FF000414FF00000A1F50021E3
:102CF00070470EF1020E2EF0030E5EF8044B2442D4
:102D000004D44FEA4102B2F17F4F11D84FEA400399
:102D1000B3F17F4F0CD80ED14FEAD07CB2F17F4F88
:102D20000CEB4C0C0CF1020C08BF4CEBD17C04E01A
:102D30004FF0080C01E04FEAD17C0CEB4C0324FA75
:102D400003F404F00704B4F1040C06D20EEB840C77
:102D5000BDE810404CF0010C6047DFE80CF00708BC
:102D600002024FF00040A0F5800010BD084642006E
:102D700018BFD2F1807288BF00F0004010BD4FF044
:102D80004070E1EE100A7047A82D000800000020F6
:102D9000980E0000C40100082C2F0008980E002097
:102DA000B85900002002000801149201630CC323EB
:102DB00070418F02430AD7233C1C01141A98281132
:102DC0000A28461C07224040CDCCCC3D1A80382929
:102DD00004011403260C43091A440986880326209B
:102DE0004113C8427C50C3470411C320401A01015B
:102DF000CA08110115691609121E2C9A995954090D
:102E000013A809521C210BC010421C0B1098411C26
:102E10002AC0F401223C60EA460401150B40E1435C
:102E2000440A4140880A4148880A41C0880AC9E1E9
:102E3000881A80880321803F3C401C460401150A03
:102E400024C888091B441A4088093E443A96880DD4
:102E5000FD0AD7233C8809FD880916440A414888A1
:102E6000012E6A010121DA6F01291E011B0B24804A
:102E70003FF03B9C450409DF440326F0424B80466B
:102E80000409DE448133984109152409521C0110BC
:102E90002AE02C710F2070419A99993ED73BBB4490
:102EA0000401135C295C0F409A40580913782240B2
:102EB0008BFA43041AA0305A20346908091E881A74
:102EC0003B841A7A045BC842441954819A400C012D
:102ED0001B3C401C460409141D0941441A4898092A
:102EE000824481331042091524C91C856F6F01018A
:102EF0007909A1891D0144100A1001404064024073
:102F0000361114203C101320FAA21212441008406B
:102F1000886002404039142030120E112010271012
:0C2F2000278F2C02030404250607080973
:040000050800018965
:00000001FF
